S01900004353313232415F4C6162365F50617274342E73726563D1
S113000045C0000060C000005EC000005CC000008D
S11300105AC0000058C0000056C0000054C0000080
S113002052C0000050C000004EC000004CC0000090
S11300304AC000006CC0000046C0000044C000007C
S113004042C0000040C000003EC000003CC00000B0
S11300503AC0000038C0000036C0000034C00000C0
S113006032C0000030C000002EC000002CC00000D0
S11300702AC0000028C0000026C0000024C00000E0
S113008022C0000020C000001EC0000011241FBEBA
S1130090CFEFD0E4DEBFCDBF11E0A0E0B1E0E2E3FA
S11300A0F5E000E00BBF02C007900D92A630B10747
S11300B0D9F721E0A6E0B1E001C01D92A535B20751
S11300C0E1F705D234C29CCF8BE0809381008DE7A9
S11300D090E0909389008093880082E080936F0081
S11300E01092850010928400809102019091030186
S11300F0A0910401B091050180930A0190930B0132
S1130100A0930C01B0930D0180E88FBF08951F9256
S11301100F920FB60F9211248F939F93AF93BF93B7
S113012080910A0190910B01A0910C01B0910D01F5
S11301300197A109B10980930A0190930B01A0933F
S11301400C01B0930D01892B8A2B8B2B99F481E040
S113015080930E018091020190910301A09104010A
S1130160B091050180930A0190930B01A0930C01B7
S1130170B0930D01BF91AF919F918F910F900FBEDE
S11301800F901F9018956093020170930301809360
S113019004019093050160930A0170930B0180930D
S11301A00C0190930D01089580B191E0282F2170E6
S11301B080FD90E09093070180911101813041F01E
S11301C018F0823089F0089581E080931101089538
S11301D0211107C082E08093110181E0809309011D
S11301E00895109209010895211103C01092090184
S11301F0089581E08093110110920901089580B15E
S1130200809584708093070190910F01913041F0A3
S113021018F0923089F0089581E080930F010895D9
S1130220882339F082E080930F0181E080930801F4
S11302300895109208010895882319F01092080176
S1130240089581E080930F01109208010895809130
S11302501201882319F0813039F004C081E08093C1
S1130260120102C0813051F580910901813041F4BD
S113027080910101823068F081508093010109C0AE
S1130280823039F480910101863018F48F5F8093B5
S1130290010180910801813041F480910001863090
S11302A068F48F5F809300010895823039F480915F
S11302B00001823018F0815080930001089580B1CC
S11302C0809582708093070190915401913041F0A0
S11302D018F0923081F0089581E0809354010895DC
S11302E0882331F082E080935401809309010895BA
S11302F0109209010895882319F0109209010895B4
S113030081E08093540110920901089580B1809591
S113031088708093070190911001913041F018F09A
S1130320923081F0089581E080931001089588232C
S113033031F082E0809310018093080108951092B7
S113034008010895882319F010920801089581E0A6
S113035080931001109208010895869586958695DC
S1130360E82FF0E0EE0FFF1FEE0FFF1FEE0FFF1F51
S1130370ED5EFE4F20E030E08FEF61E070E09191A0
S1130380913049F4AB01022E02C0440F551F0A9468
S1130390E2F7409584232F5F3F4F2830310579F7EA
S11303A00895CF93DF9380915301813041F018F089
S11303B0823049F011C081E08093530113C082E080
S11303C08093530163C080910601803409F05EC0BC
S11303D081E08093530106C0813021F0823009F01E
S11303E073C054C0E3E1F1E023E531E008C01192A9
S11303F0E817F907E1F7FC012817390719F0CF01CD
S11304000896F5CF8091010190E04091000150E001
S1130410DA011197BC01660F771F660F771F660F0D
S1130420771F655F7E4FFB01EA0FFB1F21E02083EE
S1130430FB01E40FF51F2083FA013196EB01CE0F87
S1130440DF1F2883BC01660F771F660F771F660FB7
S1130450771F6D5E7E4FEB01CA0FDB1F2883EB0114
S1130460CE0FDF1F2883880F991F880F991F880FCD
S1130470991F855E9E4FA80FB91F2C93DC01A40F12
S1130480B51F2C93E80FF91F20831EC08FEF8BB983
S113049080910601803411F4109206012091060126
S11304A026952695269581E090E002C0880F991F35
S11304B02A95E2F785B9809106014FDF8BB98091C7
S11304C00601885F80930601DF91CF91089511B8EA
S11304D08FEF82B984B915B887B918B88AB91BB82F
S11304E08BB961E070E080E090E04DDEEDDD1092CC
S11304F0110110920F0110921201109254011092E6
S1130500100110925301C0E0C43641F44DDE77DE91
S11305109EDED5DEFBDE9BDEC0E002C042DFCF5FA5
S113052080910E018823E1F310920E01EDCFF8942F
S1050530FFCFF7
S1090532030301000000B8
S9030000FC
