:100000004DC0000068C0000066C0000064C0000071
:1000100062C0000060C000005EC000005CC0000064
:100020005AC0000058C0000056C0000054C0000074
:1000300052C0000074C000004EC000004CC0000060
:100040004AC0000048C0000046C0000044C0000094
:1000500042C0000040C000003EC000003CC00000A4
:100060003AC0000038C0000036C0000034C00000B4
:1000700032C0000030C000002EC000002CC00000C4
:100080002AC0000028C0000026C0000004020702A9
:100090000A020D02100213021602190211241FBED9
:1000A000CFEFD0E4DEBFCDBF11E0A0E0B1E0E8E0EB
:1000B000F5E000E00BBF02C007900D92A430B1073D
:1000C000D9F721E0A4E0B1E001C01D92A831B20748
:1000D000E1F7BCD117C294CF8BE0809381008DE70C
:1000E00090E0909389008093880082E080936F0075
:1000F000109285001092840080910001909101017E
:10010000A0910201B091030180930E0190930F0121
:10011000A0931001B093110180E88FBF08951F9242
:100120000F920FB60F9211248F939F93AF93BF93AB
:1001300080910E0190910F01A0911001B0911101D9
:100140000197A109B10980930E0190930F01A0932B
:100150001001B0931101892B8A2B8B2B99F481E02C
:10016000809312018091000190910101A091020100
:10017000B091030180930E0190930F01A0931001A1
:10018000B0931101BF91AF919F918F910F900FBECE
:100190000F901F9018956093000170930101809358
:1001A00002019093030160930E0170930F018093FD
:1001B0001001909311010895EAE7F0E08081806ECC
:1001C0008083089580911501882319F0813041F0D2
:1001D00004C081E08093150103C0813009F04CC058
:1001E000809178009091790090930D0180930C019B
:1001F0009C01275232402C3E310550F480E991E0B9
:1002000090930A018093090181E080930B0131C032
:10021000843123E0920750F088EC90E090930A013B
:100220008093090181E080930B0123C09C012B5F27
:100230003109293F310550F480E991E090930A019A
:100240008093090182E080930B0113C08A3F9105DE
:1002500050F488EC90E090930A018093090182E0C9
:1002600080930B0106C010920A01109209011092AE
:100270000B0181E080937C00089580911301882315
:1002800019F0813039F004C081E08093130102C07D
:100290008130D9F480910B01813059F480910501AE
:1002A0008F5F88301CF4809305010895109205013A
:1002B0000895823051F48091050181501AF08093A5
:1002C0000501089587E08093050108958091160146
:1002D000882319F0813041F004C081E08093160139
:1002E00003C0813009F04BC0809178009091790073
:1002F00090930D0180930C019C01275232402C3EBB
:10030000310550F480E991E0909307018093060154
:1003100081E08093080131C0843123E0920750F0DE
:1003200088EC90E0909307018093060181E0809330
:10033000080123C09C012B5F3109293F310550F48E
:1003400080E991E0909307018093060182E0809319
:10035000080113C08A3F910550F488EC90E0909317
:1003600007018093060182E08093080106C0109285
:100370000701109206011092080110927C00089566
:1003800080911701882319F0813039F004C081E091
:100390008093170102C08130D9F480910801813027
:1003A00059F48091040181501AF08093040108955A
:1003B00087E0809304010895823051F48091040114
:1003C0008F5F88301CF4809304010895109204011B
:1003D000089580911401882319F0813039F004C008
:1003E00081E08093140102C0813079F5E09104012D
:1003F0008E2FEE0F990BAA0BBB0B88309105D8F40A
:10040000FC01EA5BFF4F75C08EEF8BB914C08DEF16
:100410008BB911C08BEF8BB90EC087EF8BB90BC0B6
:100420008FEE8BB908C08FED8BB905C08FEB8BB900
:1004300002C08FE78BB981E090E00090050102C017
:10044000880F991F0A94E2F785B908958FEF84B950
:1004500015B887B918B88AB91BB88BB910927C0047
:1004600010921501109213011092160110921701AB
:10047000109214016AE070E080E090E08CDE2CDEE7
:100480009BDEC0E0D0E0E12CF12C00E010E0C0FDEC
:1004900011C098DE8091090190910A01081719078F
:1004A00028F4892B19F00C5E1F4F16C0E6DE00E021
:1004B00010E012C00BDF8091060190910701E81651
:1004C000F90630F4892B21F084E1E80EF11C04C018
:1004D00057DF7FDFE12CF12C2196CE37D10511F4C7
:1004E000C0E0D0E0809112018823E1F31092120164
:1004F000CECFEE0FFF1F0024001C0BBE0790F6911D
:08050000E02D0994F894FFCFEF
:0405080001000000EE
:00000001FF
