S01200004C6162345F50617274312E73726563A8
S113000045C0000060C000005EC000005CC000008D
S11300105AC0000058C0000056C0000054C0000080
S113002052C0000050C000004EC000004CC0000090
S11300304AC00000AAC2000046C0000044C000003C
S113004042C0000040C000003EC000003CC00000B0
S11300503AC0000038C0000036C0000034C00000C0
S113006032C0000030C000002EC000002CC00000D0
S11300702AC0000028C0000026C0000024C00000E0
S113008022C0000020C000001EC0000011241FBEBA
S1130090CFEFD0E4DEBFCDBF11E0A0E0B1E0EAE6EF
S11300A0FCE000E00BBF02C007900D92A231B10743
S11300B0D9F727E0A2E1B1E001C01D92AB34B20749
S11300C0E1F702D1D0C59CCFCF93DF93EC01B0D33D
S11300D02091120130911301C9018C0F9D1F8C3D99
S11300E045E0940758F42817390758F4E901CC5E21
S11300F0DE4F909313018093120105C0C0E0D0E05D
S113010002C0C0E0D0E05BD4CE01DF91CF9108956E
S11301100895FC010396928381832FEF3FEF34838C
S11301202383968385839087878310820895FC01B7
S1130130118610860895CF93DF93FC01DB012181A2
S11301403281E9018A819B8113969C938E93129745
S11301508181928115969C938E9314978A819B81B9
S1130160EC017D836C83E9017B836A837283618301
S11301701996FC93EE93189780818F5F8083DF91AB
S1130180CF910895CF93DF93EB01488159814F3F7D
S11301902FEF520731F4DC011796ED91FC9118977B
S11301A017C0FC013396DC0115962D913C911697EE
S11301B0D9012D913C914217530750F00280F381ED
S11301C0E02DA281B3812D913C9142175307B0F7E2
S11301D0A281B381BB83AA831596DC93CE93149733
S11301E0FD83EC83D383C28399878887FC012081B4
S11301F02F5F2083DF91CF910895FC01A281B38109
S11302008481958115969C938E931497A481B581CE
S11302108281938113969C938E931297A085B185C6
S113022011968D919C911297E817F90731F4848106
S1130230958112969C938E931197118610868C91BA
S113024081508C93089580914A07813041F018F0D1
S1130250823051F00DC081E080934A070CC082E0E7
S113026080934A071BB8089581E080934A0703C02E
S113027081E080934A0785E18BB9089510924A077B
S1130280E2DF88EE93E01CD4FBCFAF92BF92CF9213
S1130290DF92EF92FF920F93A12CB12CC12CD12CA1
S11302A0E12CF12C082F20E030E045E550E062E03D
S11302B071E08EE391E0A0D10F91FF90EF90DF9079
S11302C0CF90BF90AF90089511B88FEF82B98AB9DB
S11302D081E0DBDF84D280E090E0089531E1FC012D
S11302E03083319722E220833197A3E3A0833197AF
S11302F060833197708331971082319760E860830F
S113030031971082319762E06083319763E06083B4
S1130310319764E06083319765E06083319766E0EC
S11303206083319767E06083319768E06083319739
S113033069E06083319760E160833197308331975E
S113034032E13083319733E13083319734E13083C4
S1130350319735E13083319736E13083319737E196
S11303603083319738E13083319739E130833197E5
S113037030E23083319731E23083319720833197F3
S113038023E220833197408331975083319726E2CB
S11303902083319727E22083319728E22083319705
S11303A029E22083319720E32083319721E32083BE
S11303B086970895109289008CE7809388008BE0DB
S11303C080938100EFE6F0E0808182608083A091D9
S11303D04807B0914907CD91CDBFDD91DEBFFF91B4
S11303E0EF91DF91CF91BF91AF919F918F917F91C9
S11303F06F915F914F913F912F911F910F91FF90BA
S1130400EF90DF90CF90BF90AF909F908F907F90B0
S11304106F905F904F903F902F901F900F900FBE62
S11304200F90089581E008950F920FB6F8940F92FB
S11304301F9211242F923F924F925F926F927F925C
S11304408F929F92AF92BF92CF92DF92EF92FF92E0
S11304500F931F932F933F934F935F936F937F93C8
S11304608F939F93AF93BF93CF93DF93EF93FF93B8
S1130470A0914807B09149070DB60D920EB60D92A2
S113048070D3A0914807B0914907CD91CDBFDD91BC
S1130490DEBFFF91EF91DF91CF91BF91AF919F911B
S11304A08F917F916F915F914F913F912F911F9108
S11304B00F91FF90EF90DF90CF90BF90AF909F90FF
S11304C08F907F906F905F904F903F902F901F90F0
S11304D00F900FBE0F9008950F920FB6F8940F92DD
S11304E01F9211242F923F924F925F926F927F92AC
S11304F08F929F92AF92BF92CF92DF92EF92FF9230
S11305000F931F932F933F934F935F936F937F9317
S11305108F939F93AF93BF93CF93DF93EF93FF9307
S1130520A0914807B09149070DB60D920EB60D92F1
S113053085D117D3A0914807B0914907CD91CDBF7C
S1130540DD91DEBFFF91EF91DF91CF91BF91AF912C
S11305509F918F917F916F915F914F913F912F91D7
S11305601F910F91FF90EF90DF90CF90BF90AF90CD
S11305709F908F907F906F905F904F903F902F90BF
S11305801F900F900FBE0F900895A6DF1895CF937C
S1130590DF93EC01E0914807F0914907938382834C
S11305A08091F8069091F906C817D90760F4609114
S11305B048077091490780910E0790910F076E5F6D
S11305C07F4FE0DD16C06091480770914907809124
S11305D01007909111076E5F7F4FD4DD8091000169
S11305E090910101C817D90720F4D0930101C09359
S11305F00001DF91CF9108954F925F926F927F92A5
S11306008F929F92AF92BF92CF92DF92EF92FF921E
S11306100F931F93CF93DF935C014B013A012901A0
S113062081E290E051DDEC01892B09F4C6C0C114CC
S1130630D10409F0BEC0C30147DD988F8F8B0097AA
S113064019F4CE0165DDB9C0A30165EA70E0F5D205
S11306509301215031098F89988D3C01620E731EDC
S113066048E050E0B401CE014996EED218A2102F12
S1130670043008F013E01E8B6E0182E0C80ED11C1A
S1130680C60155DDCE010C9652DDD987C88784E0BA
S113069090E0811B91099D878C87DB8BCA8BA2011B
S11306A0B501C3011BDE99838883E114F10419F0B9
S11306B0F701D183C0830FB6F8940F928091FA06A4
S11306C08F5F8093FA068091480790914907892BA0
S11306D069F5D0934907C09348078091FA068130A1
S11306E0A1F584E297E015DD8DE297E012DD86E363
S11306F097E00FDD8FE397E00CDD8BE197E009DDF8
S113070082E197E006DD85E097E003DD8CEF96E07B
S113071000DD8BE197E0909311078093100782E14D
S113072097E090930F0780930E070FC08091F50612
S113073081110BC0E0914807F09149078689081799
S113074020F0D0934907C09348078E899091F7060B
S1130750981710F48093F7069091F0069F5F90939A
S1130760F0069091F606981710F48093F60690E040
S11307709C01220F331F220F331F220F331F820FBE
S1130780931FB6018C5D984FD6DC0F900FBE8091FD
S1130790F506882351F0E0914807F09149078689CE
S11307A0801728F441DE81E009C081E007C081E0C0
S11307B005C0D88ECF8AC60147CF8FEFDF91CF9186
S11307C01F910F91FF90EF90DF90CF90BF90AF906B
S11307D09F908F907F906F905F904F900895AF920D
S11307E0BF92CF92DF92EF92FF920F93A12CB12C84
S11307F0C12CD12CE12CF12C00E020E030E045E5C7
S113080050E06DE071E08BE795E0F6DE813041F475
S1130810F8948093F5061092F9061092F806CADD52
S11308200F91FF90EF90DF90CF90BF90AF9008951D
S11308308091F4068F5F8093F40608950F931F93BD
S1130840CF93DF938091F4068111AFC08091F806B5
S11308509091F90601969093F9068093F806809199
S1130860F8069091F906892B99F5809110079091DB
S1130870110720910E0730910F0730931107209331
S1130880100790930F0780930E078091F1068F5FF6
S11308908093F106E0911007F09111078081811196
S11308A007C08FEF9FEF909301018093000110C068
S11308B0E0911007F09111070580F681E02D068084
S11308C0F781E02D8281938190930101809300014F
S11308D02091F8063091F906809100019091010170
S11308E02817390708F466C0E0911007F091110742
S11308F08081882399F0E0911007F0911107058019
S1130900F681E02DC681D7818A819B812091F806EA
S11309103091F90628173907F8F419C08FEF9FEFC3
S1130920909301018093000145C0E0911007F0917C
S113093011070580F681E02DC681D7818A819B81CC
S11309402091F8063091F9062817390728F4909376
S11309500101809300012EC08E010E5F1F4FC8015C
S11309604CDC8C899D89892B19F0CE010C9645DCD1
S11309708E899091F606981710F48093F60690E00D
S11309809C01220F331F220F331F220F331F820FAC
S1130990931FB8018C5D984FCEDBE0911007F09166
S11309A0110780818111C1CFB9CF8091F3068F5F88
S11309B08093F306DF91CF911F910F910895CF9209
S11309C0DF92EF92FF920F931F93CF93DF930FB6B3
S11309D0F8940F928091F40681508093F4068091EC
S11309E0F40681115FC08091FA0681112FC05DC0A9
S11309F0D7011596ED91FC911697C681D781CE014A
S1130A000C96FBDB8E010E5F1F4FC801F6DB8E894F
S1130A109091F606981710F48093F60690E09C01E6
S1130A20220F331F220F331F220F331F820F931FF6
S1130A30B8018C5D984F7FDBE0914807F09149073E
S1130A409E898689981758F0DC2C09C0D12C0F2E6A
S1130A50F5E0EF2EF7E0FF2EF02DCC24C394F70140
S1130A6080818111C5CF8091F306882379F080912C
S1130A70F306882391F0E2DE8091F306815080939F
S1130A80F3068091F3068111F6CF07C0F1E0DF167B
S1130A9021F08091F206813039F41092F206C4DC20
S1130AA081E003C080E001C080E00F900FBEDF91C1
S1130AB0CF911F910F91FF90EF90DF90CF90089509
S1130AC0CF93DF93EC01892B91F0B2DE8091F8068D
S1130AD09091F906C80FD91F809148079091490752
S1130AE002968BDBCE0153DD6ADF811101C09CDCF1
S1130AF0DF91CF9108950F2EFCEFEF2EF6E0FF2E3D
S1130B00F02DC4E2D7E08091FB06882329F190DE22
S1130B10D7011C9154DF1123F9F00FB6F8940F920A
S1130B20D7011596ED91FC91169706811781C8019E
S1130B30029663DB8091FA0681508093FA068091D5
S1130B40FB0681508093FB060F900FBEF801878946
S1130B50908DDEDAC801DCDA88818230A0F264DCB0
S1130B60D2CF8091F406811113C08091F60690E0F3
S1130B70FC01EE0FFF1FEE0FFF1FEE0FFF1F8E0F86
S1130B809F1FFC01EC5DF84F8081882329F01BC076
S1130B9081E08093F20608958091F6068150809357
S1130BA0F6068091F60690E0FC01EE0FFF1FEE0FB3
S1130BB0FF1FEE0FFF1F8E0F9F1FFC01EC5DF84F10
S1130BC08081882349F38091F60690E09C01220FEE
S1130BD0331F220F331F220F331F280F391FD90150
S1130BE0AC5DB84F1196ED91FC9112970280F381A0
S1130BF0E02D1296FC93EE931197295D384FE2177E
S1130C00F30729F422813381FD0132832183FC011E
S1130C10EE0FFF1FEE0FFF1FEE0FFF1F8E0F9F1F24
S1130C20FC01EC5DF84F0180F281E02D8681978113
S1130C3090934907809348070895DC0101C06D93A0
S1130C4041505040E0F70895FB01DC014150504011
S1130C5048F001900D920020C9F701C01D92415047
S10D0C605040E0F70895F894FFCF28
S1130C6AFFFF4C65645365635461736B0049444CDC
S1050C7A45002F
S9030000FC
