S01900004353313232415F4C6162335F50617274332E73726563D5
S113000045C0000060C000005EC000005CC000008D
S11300105AC0000058C0000056C0000054C0000080
S113002052C0000050C000004EC000004CC0000090
S11300304AC00000C4C0000046C0000044C0000024
S113004042C0000040C000003EC000003CC00000B0
S11300503AC0000038C0000036C0000034C00000C0
S113006032C0000030C000002EC000002CC00000D0
S11300702AC0000028C0000026C0000024C00000E0
S113008022C0000020C000001EC0000011241FBEBA
S1130090CFEFD0E4DEBFCDBF11E0A0E0B1E0EEE7EA
S11300A0F5E000E00BBF02C007900D92A631B10746
S11300B0D9F721E0A6E1B1E001C01D92A032B20758
S11300C0E1F734D25AC29CCF181619065CF0089591
S11300D0000021503109E1F74F5F5F4F8417950706
S11300E019F4089540E050E027E033E0F1CF5E9842
S11300F088B95F9A00005F9882E090E0E5CF0895A8
S113010081E0F5CF0895813118F48158F0CF089536
S11301108155EDCF089584E690E0D6DF88E3E7DFEC
S113012086E0E5DF8FE0E3DF81E0E1DF8AE090E075
S1130130CBCF08955E9A88B95F9A00005F9881E0FA
S113014090E0C2CF08950F931F93CF93DF93182F9E
S1130150EB01D6DF8881882351F001E0010F812F64
S1130160D2DF8991E7DF102F88818111F6CFDF91EB
S1130170CF911F910F9108958BE0809381008DE7BB
S113018090E0909389008093880082E080936F00D0
S113019010928500109284008091050190910601CF
S11301A0A0910701B091080180931801909319015F
S11301B0A0931A01B0931B0180E88FBF08951F928A
S11301C00F920FB60F9211248F939F93AF93BF9307
S11301D08091180190911901A0911A01B0911B010D
S11301E00197A109B1098093180190931901A09373
S11301F01A01B0931B01892B8A2B8B2B99F481E074
S113020080931C018091050190910601A091070142
S1130210B09108018093180190931901A0931A01D9
S1130220B0931B01BF91AF919F918F910F900FBE1F
S11302300F901F90189560930501709306018093A9
S1130240070190930801609318017093190180933A
S11302501A0190931B0108958FEE82B90000009B50
S113026044C080B1809581FD42C080B1809582FDFB
S113027040C080B1809583FD3EC08FED82B90000FF
S1130280009B3BC080B1809581FD39C080B18095D1
S113029082FD37C080B1809583FD35C08FEB82B974
S11302A00000009B32C080B1809581FD30C080B1D8
S11302B0809582FD2EC080B1809583FD2CC08FE790
S11302C082B9000090B19095892F817090FD25C06E
S11302D090B1909591FD23C090B1909592FD21C06D
S11302E090B1909593FD1FC0089581E3089584E330
S11302F0089587E308958AE2089582E3089585E3E3
S1130300089588E3089580E3089583E3089586E3D8
S1130310089589E3089583E2089581E4089582E4C9
S1130320089583E4089584E4089580EB84B980E516
S11303308CBD08952C988EBD0DB407FEFDCF2C9A6C
S11303408EB5089580911E01882319F0813041F003
S113035004C081E080931E0103C0813009F03EC0D7
S11303607BDF80931701813321F481E080930301C3
S11303700895823321F482E0809303010895833346
S113038021F483E0809303010895843321F484E00D
S1130390809303010895853321F485E0809303015C
S11303A00895863321F486E080930301089581340F
S11303B021F481E0809304010895823421F482E0E1
S11303C0809304010895833421F483E0809304012D
S11303D00895843419F484E080930401089580918D
S11303E01D01882319F0813041F004C081E080931D
S11303F01D0103C0813009F07FC0809104019091F8
S11304000201981781F1813039F486E07CDE81E3C2
S113041091DE80E178DE1AC0823039F486E073DE42
S113042082E388DE80E16FDE11C0833039F486E038
S11304306ADE83E37FDE80E166DE08C0843031F467
S113044086E061DE84E376DE80E15DDE20910401F6
S1130450209302019091030130E1939FC001112484
S1130460822B8093160180910301909101019817CA
S113047009F442C0813039F48CE045DE81E35ADE70
S113048080E141DE2CC0823039F48CE03CDE82E332
S113049051DE80E138DE23C0833039F48CE033DE72
S11304A083E348DE80E12FDE1AC0843039F48CE027
S11304B02ADE84E33FDE80E126DE11C0853039F494
S11304C08CE021DE85E336DE80E11DDE08C0863067
S11304D031F48CE018DE86E32DDE80E114DE8091B9
S11304E003018093010120E1829FC00111249091B6
S11304F00401892B80931601089580911F0188239C
S113050019F0813039F004C081E080931F0102C0EA
S1130510813059F48091160190910001891729F0D6
S113052009DF8091160180930001089580EF81B95D
S11305308FE082B98FEF84B915B887B918B88AB932
S11305401BB8E9DD69E071E081E0FDDDEEDE64E623
S113055070E080E090E06FDE0FDE10921E011092DA
S11305601D0110921F01EEDE3ADFC7DF80911C01EE
S11105708823E1F310921C01F6CFF894FFCF1C
S113057E1101010101010000005074726E3A312024
S109058E5370643A3100D1
S9030000FC
