S02A00004353313232415F4C6162325F466F6C6C6F7765725F4C65616465725F4D616E75616C2E73726563DC
S113000045C0000060C000005EC000005CC000008D
S11300105AC0000058C0000056C0000054C0000080
S113002052C0000050C000004EC000004CC0000090
S11300304AC00000CFC0000046C0000044C0000019
S113004042C0000040C000003EC000003CC00000B0
S11300503AC0000038C0000036C0000034C00000C0
S113006032C0000030C000002EC000002CC00000D0
S11300702AC0000028C0000026C0000024C00000E0
S113008022C0000020C000001EC0000011241FBEBA
S1130090CFEFD0E4DEBFCDBF11E0A0E0B1E0E4EDEE
S11300A0F3E000E00BBF02C007900D92A430B1074B
S11300B0D9F721E0A4E0B1E001C01D92A231B2075A
S11300C0E1F762D185C19CCF813081F0E1ECF0E0B1
S11300D0808188618083E2ECF0E0808186608083A7
S11300E083E38093C4001092C5000895E9ECF0E026
S11300F0808188618083EAECF0E08081866080837F
S113010083E38093CC001092CD000895813029F4CC
S11301108091C800882374F008958091C0008823DA
S11301208CF4A6ECB0E0E0ECF0E08C9180818823C4
S1130130E4F30895AEECB0E0E8ECF0E08C9180815B
S11301408823E4F30895613041F0E0ECF0E090811D
S113015095FFFDCF8093C6000895E8ECF0E0908110
S113016095FFFDCF8093CE000895813041F0E0ECFF
S1130170F0E080818823ECF78091C6000895E8ECD4
S1130180F0E080818823ECF78091CE0008958BE025
S1130190809381008DE790E090938900809388009C
S11301A082E080936F001092850010928400809109
S11301B0000190910101A0910201B091030180938B
S11301C0080190930901A0930A01B0930B0180E800
S11301D08FBF08951F920F920FB60F9211248F9321
S11301E09F93AF93BF938091080190910901A091CF
S11301F00A01B0910B010197A109B109809308018B
S113020090930901A0930A01B0930B01892B8A2BC7
S11302108B2B99F481E080930C01809100019091E3
S11302200101A0910201B091030180930801909310
S11302300901A0930A01B0930B01BF91AF919F9163
S11302408F910F900FBE0F901F901895609300012F
S1130250709301018093020190930301609308015C
S11302607093090180930A0190930B010895809182
S11302700E01813041F018F0823069F014C082E040
S113028080930E0122C080910601811111C082E089
S113029080930E011AC0809106018823B1F081E099
S11302A080930E0105C0813019F08230C1F40DC075
S11302B08091C80085FF04C061E08091070143DF9D
S11302C0809107018093050108958091C0008823DF
S11302D034F480E04ADF8093050180E017CF08956D
S11302E080911001882319F0813039F004C081E035
S11302F08093100102C08130A1F4809104018336FF
S113030020F48F5F80930401089580910701811187
S113031004C083E08093070102C010920701109289
S11303200401089580910F01882319F0813039F078
S113033004C081E080930F0102C0813059F48091A0
S1130340050185B980910601882319F08FEF88B9DA
S1130350089518B8089580910D01882319F081300B
S113036039F004C081E080930D0102C0813059F45A
S113037080B18093110180FF04C081E08093060165
S1130380089510920601089511B88FEF82B987B9C4
S113039018B884B915B880E097DE81E095DE6AE08C
S11303A070E080E090E052DFF2DE10920E011092D5
S11303B0100110920F0110920D01CDDF58DF90DF74
S11303C0B1DF80910C018823E1F310920C01F5CF89
S10703D0F894FFCFCB
S10703D40100000020
S9030000FC
