S01F00004353313232415F4C6162335F50617274335F536C6176652E7372656375
S113000056C0000071C000006FC000006DC0000049
S11300106BC0000069C0000067C0000065C000003C
S113002063C0000061C000005FC000005DC000004C
S11300305BC000007DC0000057C0000055C0000038
S113004053C0000051C000004FC00000C3C00000F6
S11300504BC0000049C0000047C0000045C000007C
S113006043C0000041C000003FC000003DC000008C
S11300703BC0000039C0000037C0000035C000009C
S113008033C0000031C000002FC00000DC01E001DB
S1130090F0010002100220023002400250026A0203
S11300A06D0270027302760279027C027F021124CF
S11300B01FBECFEFD0E4DEBFCDBF11E0A0E0B1E0C2
S11300C0EEE7F5E000E00BBF02C007900D92A83008
S11300D0B107D9F721E0A8E0B1E001C01D92A43135
S11300E0B207E1F70FD249C28BCF8BE08093810036
S11300F08DE790E0909389008093880082E080935C
S11301006F001092850010928400809103019091F9
S11301100401A0910501B091060180930A01909316
S11301200B01A0930C01B0930D0180E88FBF0895DB
S11301301F920F920FB60F9211248F939F93AF9338
S1130140BF9380910A0190910B01A0910C01B09191
S11301500D010197A109B10980930A0190930B0144
S1130160A0930C01B0930D01892B8A2B8B2B99F44E
S113017081E080930E018091030190910401A0918C
S11301800501B091060180930A0190930B01A0939D
S11301900C01B0930D01BF91AF919F918F910F907E
S11301A00FBE0F901F901895609303017093040184
S11301B0809305019093060160930A0170930B01EB
S11301C080930C0190930D01089580E484B980EC30
S11301D08CBD08951F920F920FB60F9211248F9326
S11301E08EB5809309018F910F900FBE0F901F90D1
S11301F018958091100181112DC080910901982FCB
S11302009F709093010182958F70809300018130DB
S113021021F488E2809302010895823021F484E17C
S1130220809302010895833021F48AE080930201CF
S11302300895843021F485E0809302010895853087
S113024021F482E0809302010895863019F481E05C
S113025080930201089580910F01813041F018F0DC
S11302608230A9F024C081E080930F0125C08091E1
S1130270080190910201891720F48F5F809308018F
S11302801BC01092080182E080930F0118C0809176
S1130290080190910201891720F48F5F809308016F
S11302A00EC01092080181E080930F0105C08130D7
S11302B019F0823031F403C080EF8BB908958FE0D8
S11302C08BB9089580911101813041F018F082308A
S11302D0A9F024C081E08093110125C08091080118
S11302E090910201891720F48F5F809308011BC04D
S11302F01092080182E08093110118C080910801D6
S113030090910201891720F48F5F809308010EC039
S11303101092080181E08093110105C0813019F029
S1130320823031F403C08AEA8BB9089586E68BB92A
S1130330089580911301813041F018F08230A9F0C2
S113034024C081E08093130125C08091080190911D
S11303500201891720F48F5F809308011BC010925B
S1130360080182E08093130118C0809108019091E4
S11303700201891720F48F5F809308010EC0109248
S1130380080181E08093130105C0813019F08230A7
S113039031F403C08AEA8BB9089585E58BB90895D1
S11303A0E09112018E2F90E08930910508F088C009
S11303B0FC01EA5BFF4FD8C081E0809312018AC040
S11303C08091080190910201891720F48F5F809336
S11303D0080180C01092080182E0809312017DC060
S11303E08091080190910201891720F48F5F809316
S11303F0080173C01092080183E08093120170C059
S11304008091080190910201891720F48F5F8093F5
S1130410080166C01092080184E08093120163C051
S11304208091080190910201891720F48F5F8093D5
S1130430080159C01092080185E08093120156C04A
S11304408091080190910201891720F48F5F8093B5
S113045008014CC01092080186E08093120149C043
S11304608091080190910201891720F48F5F809395
S113047008013FC01092080187E0809312013CC03C
S11304808091080190910201891720F48F5F809375
S1130490080132C01092080188E0809312012FC035
S11304A08091080190910201891720F48F5F809355
S11304B0080125C01092080181E0809312010AC04E
S11304C08E2F90E0FC013197E830F105D0F4E15B28
S11304D0FF4F4AC081E08BB9089582E08BB908953B
S11304E084E08BB9089588E08BB9089580E18BB9D5
S11304F0089580E28BB9089580E48BB9089580E86B
S11305008BB908958FEF8AB91BB814B885B962E323
S113051070E080E090E048DEE8DD10921001109277
S11305200F011092110110921301109212014DDE6D
S113053060DE80910101823059F018F4813031F08D
S11305400CC0833039F0843039F007C084DE05C034
S1130550F0DE03C025DF01C0B5DE80910E018823E3
S1130560E1F310920E01E4CFEE0FFF1F0024001CF4
S11105700BBE0790F691E02D0994F894FFCF8E
S10B057E010128010000000046
S9030000FC
