S02000004353313232415F4C6162315F4B6579626F617264546573742E73726563C9
S11300008AC00000A5C00000A3C00000A1C0000079
S11300109FC000009DC000009BC0000099C000006C
S113002097C0000095C0000093C0000091C000007C
S11300308FC00000B1C000008BC0000089C0000068
S113004087C0000085C0000083C0000081C000009C
S11300507FC000007DC000007BC0000079C00000AC
S113006077C0000075C0000073C0000071C00000BC
S11300706FC000006DC000006BC0000069C00000CC
S113008067C0000065C0000063C000003002580271
S1130090580258025802580258025802580258028C
S11300A0580258025802580258025802580258027C
S11300B0580258025802580258025802580258026C
S11300C0580258025802580258025802580258025C
S11300D0580256025802580258025802580258024E
S11300E0520258025802580258025802540233026B
S11300F0360239023C023F024202440246024802EE
S113010058025802580258025802580258024A0229
S11301104C024E02500211241FBECFEFD0E4DEBFCA
S1130120CDBF11E0A0E0B1E0EAECF4E000E00BBFE9
S113013002C007900D92A630B107D9F721E0A6E0DE
S1130140B1E001C01D92A631B207E1F70AD1BBC1EB
S113015057CF8BE0809381008DE790E090938900E6
S11301608093880082E080936F0010928500109243
S113017084008091010190910201A0910301B0914A
S113018004018093110190931201A0931301B09381
S1130190140180E88FBF08951F920F920FB60F923B
S11301A011248F939F93AF93BF93809111019091EA
S11301B01201A0911301B09114010197A109B10991
S11301C08093110190931201A0931301B093140131
S11301D0892B8A2B8B2B99F481E0809315018091D4
S11301E0010190910201A0910301B0910401809357
S11301F0110190931201A0931301B0931401BF91C4
S1130200AF919F918F910F900FBE0F901F901895F3
S113021060930101709302018093030190930401A0
S11302206093110170931201809313019093140150
S113023008958FEE82B90000009B44C080B1809580
S113024081FD42C080B1809582FD40C080B180951F
S113025083FD3EC08FED82B90000009B3BC080B19E
S1130260809581FD39C080B1809582FD37C080B111
S1130270809583FD35C08FEB82B90000009B32C0AE
S113028080B1809581FD30C080B1809582FD2EC003
S113029080B1809583FD2CC08FE782B9000090B1B6
S11302A09095892F817090FD25C090B1909591FD16
S11302B023C090B1909592FD21C090B1909593FD8B
S11302C01FC0089581E3089584E3089587E30895A2
S11302D08AE2089582E3089585E3089588E3089502
S11302E080E3089583E3089586E3089589E30895F8
S11302F083E2089581E4089582E4089583E40895EF
S113030084E40895CF93DF93009741F0019781F03F
S11303108FE180930001C0E0D0E01FC091E080E055
S1130320209100012F3109F490E0C92FD82F09C082
S113033091E080E0209100012F3109F490E0C92F71
S1130340D82F209751F0C130D10521F472DF80936A
S1130350000103C08FE180930001CE01DF91CF91B2
S113036008958FEF84B915B890EF91B99FE092B9D1
S1130370E6E0F1E080838AE090E0A0E0B0E08183F1
S11303809283A383B48385839683A783B08782E80B
S113039091E0928781876AE070E080E090E038DF46
S11303A0D8DEC6E0D1E00F2EFBE15F2EF02D0F2E3C
S11303B0FFE06F2EF02D0F2EFEE07F2EF02D0F2E7E
S11303C0FDE08F2EF02D0F2EFCE09F2EF02D0F2E32
S11303D0FBE0AF2EF02D0F2EFAE0BF2EF02D0F2EE6
S11303E0F9E0CF2EF02D6894DD24D3F80F2EF7E03A
S11303F0EF2EF02D0F2EF6E0FF2EF02D05E010E08D
S11304004D815E816F81788589819A81AB81BC81C0
S1130410481759076A077B0761F48881E985FA85DB
S1130420082E000C990B099588831D821E821F8259
S113043018868D819E81AF81B8850196A11DB11D5D
S11304408D839E83AF83B88701501109C9F6F1DE0D
S113045090E08534910560F5FC01EA5BFF4F2AC00A
S11304608FE185B9CBCF81E085B9C8CF82E085B96A
S1130470C5CF83E085B9C2CF84E085B9BFCF85E01D
S113048085B9BCCFF5B8BACFE5B8B8CFD5B8B6CF33
S1130490C5B8B4CFB5B8B2CFA5B8B0CF95B8AECFC4
S11304A085B8ACCF75B8AACF15B8A8CF65B8A6CF14
S11304B055B8A4CFEE0FFF1F0024001C0BBE0790FD
S10D04C0F691E02D0994F894FFCFA3
S10904CA1F010000000008
S9030000FC
