S01A00004353313232415F4C6162325F4C65616465722E7372656352
S113000045C0000060C000005EC000005CC000008D
S11300105AC0000058C0000056C0000054C0000080
S113002052C0000050C000004EC000004CC0000090
S11300304AC00000A0C0000046C0000044C0000048
S113004042C0000040C000003EC000003CC00000B0
S11300503AC0000038C0000036C0000034C00000C0
S113006032C0000030C000002EC000002CC00000D0
S11300702AC0000028C0000026C0000024C00000E0
S113008022C0000020C000001EC0000011241FBEBA
S1130090CFEFD0E4DEBFCDBF11E0A0E0B1E0E0E9F6
S11300A0F2E000E00BBF02C007900D92A430B1074C
S11300B0D9F721E0A4E0B1E001C01D92AB30B20752
S11300C0E1F7CAD0E3C09CCF813081F0E1ECF0E0ED
S11300D0808188618083E2ECF0E0808186608083A7
S11300E083E38093C4001092C5000895E9ECF0E026
S11300F0808188618083EAECF0E08081866080837F
S113010083E38093CC001092CD000895613041F0D8
S1130110E0ECF0E0908195FFFDCF8093C600089558
S1130120E8ECF0E0908195FFFDCF8093CE00089538
S11301308BE0809381008DE790E090938900809319
S1130140880082E080936F001092850010928400F2
S11301508091000190910101A0910201B0910301ED
S11301608093050190930601A0930701B0930801C1
S113017080E88FBF08951F920F920FB60F9211243B
S11301808F939F93AF93BF93809105019091060144
S1130190A0910701B09108010197A109B1098093C9
S11301A0050190930601A0930701B0930801892BE0
S11301B08A2B8B2B99F481E08093090180910001B3
S11301C090910101A0910201B09103018093050176
S11301D090930601A0930701B0930801BF91AF91DA
S11301E09F918F910F900FBE0F901F901895609361
S11301F000017093010180930201909303016093C5
S113020005017093060180930701909308010895F6
S113021080910A01882319F0813029F00FC081E010
S113022080930A010DC080910401811104C081E012
S11302308093040105C01092040102C0813059F476
S11302408091040185B98091C00085FF04C060E0FD
S1130250809104015BCF0895C1E0C1B98EEF82B9EA
S11302608FEF84B915B880E02FDF68EE73E080E08B
S113027090E0BDDF5DDF10920A01C2B9C9DF809151
S113028009018823E1F310920901F8CFF894FFCF14
S10702900100000065
S9030000FC
