S01900004353313232415F4C6162345F50617274332E73726563D4
S113000045C0000060C000005EC000005CC000008D
S11300105AC0000058C0000056C0000054C0000080
S113002052C0000050C000004EC000004CC0000090
S11300304AC0000002C3000046C0000044C00000E3
S113004042C0000040C000003EC000003CC00000B0
S11300503AC0000038C0000036C0000034C00000C0
S113006032C0000030C000002EC000002CC00000D0
S11300702AC0000028C0000026C0000024C00000E0
S113008022C0000020C000001EC0000011241FBEBA
S1130090CFEFD0E4DEBFCDBF11E0A0E0B1E0EAE1F4
S11300A0FDE000E00BBF02C007900D92AA32B10739
S11300B0D9F727E0AAE2B1E001C01D92A536B20744
S11300C0E1F75AD128C69CCFCF93DF93EC0108D433
S11300D020912A0130912B01C9018C0F9D1F8C3D69
S11300E045E0940758F42817390758F4E901C45D2A
S11300F0DE4F90932B0180932A0105C0C0E0D0E02D
S113010002C0C0E0D0E0B3D4CE01DF91CF91089516
S11301100895FC010396928381832FEF3FEF34838C
S11301202383968385839087878310820895FC01B7
S1130130118610860895CF93DF93FC01DB012181A2
S11301403281E9018A819B8113969C938E93129745
S11301508181928115969C938E9314978A819B81B9
S1130160EC017D836C83E9017B836A837283618301
S11301701996FC93EE93189780818F5F8083DF91AB
S1130180CF910895CF93DF93EB01488159814F3F7D
S11301902FEF520731F4DC011796ED91FC9118977B
S11301A017C0FC013396DC0115962D913C911697EE
S11301B0D9012D913C914217530750F00280F381ED
S11301C0E02DA281B3812D913C9142175307B0F7E2
S11301D0A281B381BB83AA831596DC93CE93149733
S11301E0FD83EC83D383C28399878887FC012081B4
S11301F02F5F2083DF91CF910895FC01A281B38109
S11302008481958115969C938E931497A481B581CE
S11302108281938113969C938E931297A085B185C6
S113022011968D919C911297E817F90731F4848106
S1130230958112969C938E931197118610868C91BA
S113024081508C93089580916307813041F018F0B8
S1130250823051F00DC081E0809363070DC082E0CD
S1130260809363075898089581E08093630704C0DE
S1130270109263071BB80895589A08951092630763
S1130280E2DF84EF91E074D4FBCF80916207813088
S113029041F018F0823051F00DC081E08093620784
S11302A00DC082E0809362075A98089581E080939C
S11302B0620704C0109262071BB808955A9A089501
S11302C010926207E2DF88EE93E052D4FBCF809174
S11302D06407813041F018F0823051F00DC081E0A4
S11302E0809364070DC082E0809364075C9808954E
S11302F081E08093640704C0109264071BB80895DA
S11303005C9A089510926407E2DF8CED95E030D496
S1130310FBCFAF92BF92CF92DF92EF92FF920F93F7
S1130320CF93A12CB12CC12CD12CE12CF12C082F72
S113033020E030E045E550E062E071E08EE391E0DA
S1130340B3D120E030E045E550E06DE071E080E6B7
S113035091E0AAD120E030E045E550E069E171E0A8
S113036082E891E0A1D1CF910F91FF90EF90DF90BF
S1130370CF90BF90AF90089511B88FEF82B98AB92A
S113038081E0C7DF84D280E090E0089531E1FC0190
S11303903083319722E220833197A3E3A0833197FE
S11303A060833197708331971082319760E860835E
S11303B031971082319762E06083319763E0608304
S11303C0319764E06083319765E06083319766E03C
S11303D06083319767E06083319768E06083319789
S11303E069E06083319760E16083319730833197AE
S11303F032E13083319733E13083319734E1308314
S1130400319735E13083319736E13083319737E1E5
S11304103083319738E13083319739E13083319734
S113042030E23083319731E2308331972083319742
S113043023E220833197408331975083319726E21A
S11304402083319727E22083319728E22083319754
S113045029E22083319720E32083319721E320830D
S113046086970895109289008CE7809388008BE02A
S113047080938100EFE6F0E0808182608083A09128
S11304806007B0916107CD91CDBFDD91DEBFFF91D3
S1130490EF91DF91CF91BF91AF919F918F917F9118
S11304A06F915F914F913F912F911F910F91FF9009
S11304B0EF90DF90CF90BF90AF909F908F907F9000
S11304C06F905F904F903F902F901F900F900FBEB2
S11304D00F90089581E008950F920FB6F8940F924B
S11304E01F9211242F923F924F925F926F927F92AC
S11304F08F929F92AF92BF92CF92DF92EF92FF9230
S11305000F931F932F933F934F935F936F937F9317
S11305108F939F93AF93BF93CF93DF93EF93FF9307
S1130520A0916007B09161070DB60D920EB60D92C1
S113053070D3A0916007B0916107CD91CDBFDD91DB
S1130540DEBFFF91EF91DF91CF91BF91AF919F916A
S11305508F917F916F915F914F913F912F911F9157
S11305600F91FF90EF90DF90CF90BF90AF909F904E
S11305708F907F906F905F904F903F902F901F903F
S11305800F900FBE0F9008950F920FB6F8940F922C
S11305901F9211242F923F924F925F926F927F92FB
S11305A08F929F92AF92BF92CF92DF92EF92FF927F
S11305B00F931F932F933F934F935F936F937F9367
S11305C08F939F93AF93BF93CF93DF93EF93FF9357
S11305D0A0916007B09161070DB60D920EB60D9211
S11305E085D117D3A0916007B0916107CD91CDBF9C
S11305F0DD91DEBFFF91EF91DF91CF91BF91AF917C
S11306009F918F917F916F915F914F913F912F9126
S11306101F910F91FF90EF90DF90CF90BF90AF901C
S11306209F908F907F906F905F904F903F902F900E
S11306301F900F900FBE0F900895A6DF1895CF93CB
S1130640DF93EC01E0916007F0916107938382836B
S11306508091100790911107C817D90760F4609131
S113066060077091610780912607909127076E5F5C
S11306707F4F88DD16C0609160077091610780919B
S11306802807909129076E5F7F4F7CDD80910001E0
S113069090910101C817D90720F4D0930101C093A8
S11306A00001DF91CF9108954F925F926F927F92F4
S11306B08F929F92AF92BF92CF92DF92EF92FF926E
S11306C00F931F93CF93DF935C014B013A012901F0
S11306D081E290E0F9DCEC01892B09F4C6C0C11475
S11306E0D10409F0BEC0C301EFDC988F8F8B009753
S11306F019F4CE010DDDB9C0A30165EA70E0F5D2AD
S11307009301215031098F89988D3C01620E731E2B
S113071048E050E0B401CE014996EED218A2102F61
S1130720043008F013E01E8B6E0182E0C80ED11C69
S1130730C601FDDCCE010C96FADCD987C88784E0BB
S113074090E0811B91099D878C87DB8BCA8BA2016A
S1130750B501C3011BDE99838883E114F10419F008
S1130760F701D183C0830FB6F8940F9280911207DA
S11307708F5F809312078091600790916107892BA6
S113078069F5D0936107C0936007809112078130A7
S1130790A1F58CE397E0BDDC85E497E0BADC8EE458
S11307A097E0B7DC87E597E0B4DC83E397E0B1DC5E
S11307B08AE297E0AEDC8DE197E0ABDC84E197E080
S11307C0A8DC83E397E090932907809328078AE2C3
S11307D097E090932707809326070FC080910D0719
S11307E081110BC0E0916007F091610786890817B9
S11307F020F0D0936107C09360078E8990910F0712
S1130800981710F480930F07909108079F5F9093B7
S1130810080790910E07981710F480930E0790E044
S11308209C01220F331F220F331F220F331F820F0D
S1130830931FB601845C984F7EDC0F900FBE8091AD
S11308400D07882351F0E0916007F09161078689D4
S1130850801728F441DE81E009C081E007C081E00F
S113086005C0D88ECF8AC60147CF8FEFDF91CF91D5
S11308701F910F91FF90EF90DF90CF90BF90AF90BA
S11308809F908F907F906F905F904F900895AF925C
S1130890BF92CF92DF92EF92FF920F93A12CB12CD3
S11308A0C12CD12CE12CF12C00E020E030E045E516
S11308B050E065E271E083ED95E0F6DE813041F4CD
S11308C0F89480930D071092110710921007CADD57
S11308D00F91FF90EF90DF90CF90BF90AF9008956D
S11308E080910C078F5F80930C0708950F931F93DB
S11308F0CF93DF9380910C078111AFC080911007D3
S1130900909111070196909311078093100780919D
S1130910100790911107892B99F5809128079091E0
S11309202907209126073091270730932907209320
S113093028079093270780932607809109078F5FE4
S113094080930907E0912807F0912907808181119C
S113095007C08FEF9FEF909301018093000110C0B7
S1130960E0912807F09129070580F681E02D0680A3
S1130970F781E02D8281938190930101809300019E
S1130980209110073091110780910001909101018D
S11309902817390708F466C0E0912807F091290761
S11309A08081882399F0E0912807F0912907058038
S11309B0F681E02DC681D7818A819B812091100721
S11309C03091110728173907F8F419C08FEF9FEFFA
S11309D0909301018093000145C0E0912807F091B4
S11309E029070580F681E02DC681D7818A819B8104
S11309F020911007309111072817390728F4909394
S1130A000101809300012EC08E010E5F1F4FC801AB
S1130A10F4DB8C899D89892B19F0CE010C96EDDBD2
S1130A208E8990910E07981710F480930E0790E02A
S1130A309C01220F331F220F331F220F331F820FFB
S1130A40931FB801845C984F76DBE0912807F091FE
S1130A50290780818111C1CFB9CF80910B078F5FA6
S1130A6080930B07DF91CF911F910F910895CF923F
S1130A70DF92EF92FF920F931F93CF93DF930FB602
S1130A80F8940F9280910C07815080930C07809109
S1130A900C0781115FC08091120781112FC05DC0C6
S1130AA0D7011596ED91FC911697C681D781CE0199
S1130AB00C96A3DB8E010E5F1F4FC8019EDB8E894F
S1130AC090910E07981710F480930E0790E09C0104
S1130AD0220F331F220F331F220F331F820F931F46
S1130AE0B801845C984F27DBE0916007F0916107BF
S1130AF09E898689981758F0DC2C09C0D12C0F2EBA
S1130B00FDE1EF2EF7E0FF2EF02DCC24C394F70186
S1130B1080818111C5CF80910B07882379F0809162
S1130B200B07882391F0E2DE80910B0781508093BC
S1130B300B0780910B078111F6CF07C0F1E0DF1698
S1130B4021F080910A07813039F410920A07C4DC3D
S1130B5081E003C080E001C080E00F900FBEDF9110
S1130B60CF911F910F91FF90EF90DF90CF90089558
S1130B70CF93DF93EC01892B91F0B2DE80911007C3
S1130B8090911107C80FD91F809160079091610758
S1130B90029633DBCE0153DD6ADF811101C09CDC98
S1130BA0DF91CF9108950F2EF4E1EF2EF7E0FF2EA1
S1130BB0F02DCCE3D7E080911307882329F190DE50
S1130BC0D7011C9154DF1123F9F00FB6F8940F925A
S1130BD0D7011596ED91FC91169706811781C801EE
S1130BE002960BDB8091120781508093120780914B
S1130BF013078150809313070F900FBEF801878964
S1130C00908D86DAC80184DA88818230A0F264DCAF
S1130C10D2CF80910C07811113C080910E0790E010
S1130C20FC01EE0FFF1FEE0FFF1FEE0FFF1F8E0FD5
S1130C309F1FFC01E45CF84F8081882329F01BC0CE
S1130C4081E080930A07089580910E078150809374
S1130C500E0780910E0790E0FC01EE0FFF1FEE0FD0
S1130C60FF1FEE0FFF1F8E0F9F1FFC01E45CF84F68
S1130C708081882349F380910E0790E09C01220F24
S1130C80331F220F331F220F331F280F391FD9019F
S1130C90A45CB84F1196ED91FC9112970280F381F8
S1130CA0E02D1296FC93EE931197215C384FE217D6
S1130CB0F30729F422813381FD0132832183FC016E
S1130CC0EE0FFF1FEE0FFF1FEE0FFF1F8E0F9F1F74
S1130CD0FC01E45CF84F0180F281E02D868197816C
S1130CE090936107809360070895DC0101C06D93C0
S1130CF041505040E0F70895FB01DC014150504061
S1130D0048F001900D920020C9F701C01D92415096
S10D0D105040E0F70895F894FFCF77
S1130D1AFFFF4C65645365635461736B004C6564EF
S1130D2A5365635461736B31004C65645365635452
S10D0D3A61736B320049444C45001C
S9030000FC
