:1000000045C0000060C000005EC000005CC0000091
:100010005AC0000058C0000056C0000054C0000084
:1000200052C0000050C000004EC000004CC0000094
:100030004AC00000E6C0000046C0000044C0000006
:1000400042C0000040C000003EC000003CC00000B4
:100050003AC0000038C0000036C0000034C00000C4
:1000600032C0000030C000002EC000002CC00000D4
:100070002AC0000028C0000026C0000024C00000E4
:1000800022C0000020C000001EC0000011241FBEBE
:10009000CFEFD0E4DEBFCDBF11E0A0E0B1E0E8E6F5
:1000A000F4E000E00BBF02C007900D92A430B1074E
:1000B000D9F721E0A4E0B1E001C01D92A531B2075B
:1000C000E1F7ACD1CFC19CCF813081F0E1ECF0E021
:1000D000808188618083E2ECF0E0808186608083AB
:1000E00083E38093C4001092C5000895E9ECF0E02A
:1000F000808188618083EAECF0E080818660808383
:1001000083E38093CC001092CD000895813029F4D0
:100110008091C800882374F008958091C0008823DE
:100120008CF4A6ECB0E0E0ECF0E08C9180818823C8
:10013000E4F30895AEECB0E0E8ECF0E08C9180815F
:100140008823E4F30895613041F0E0ECF0E0908121
:1001500095FFFDCF8093C6000895E8ECF0E0908114
:1001600095FFFDCF8093CE000895813041F0E0EC03
:10017000F0E080818823ECF78091C6000895E8ECD8
:10018000F0E080818823ECF78091CE0008958BE029
:10019000809381008DE790E09093890080938800A0
:1001A00082E080936F00109285001092840080910D
:1001B000000190910101A0910201B091030180938F
:1001C0000C0190930D01A0930E01B0930F0180E8F4
:1001D0008FBF089581E08093100180910801909174
:1001E0000901A0910A01B0910B010196A11DB11D59
:1001F0008093080190930901A0930A01B0930B0129
:1002000008951F920F920FB60F9211240BB60F9202
:100210002F933F934F935F936F937F938F939F930E
:10022000AF93BF93EF93FF9380910C0190910D01D9
:10023000A0910E01B0910F010197A109B10980931E
:100240000C0190930D01A0930E01B0930F01892B27
:100250008A2B8B2B89F4BEDF8091000190910101E4
:10026000A0910201B091030180930C0190930D01C4
:10027000A0930E01B0930F01FF91EF91BF91AF9149
:100280009F918F917F916F915F914F913F912F91AE
:100290000F900BBE0F900FBE0F901F90189560939C
:1002A0000001709301018093020190930301609318
:1002B0000C0170930D0180930E0190930F0108952E
:1002C00080911201813041F018F08230A1F034C0E9
:1002D00082E08093120142C080910601882339F0A8
:1002E0008091C00088236CF5109206012AC082E03C
:1002F0008093120133C080910601882321F081E0B0
:10030000809312011EC08091080190910901A09173
:100310000A01B0910B018D329140A105B105F0F0B9
:1003200081E0809306011092080110920901109259
:100330000A0110920B0112C0813019F0823051F580
:100340000DC08091C80085FF04C061E08091070165
:10035000FADE809107018093050108958091C00025
:100360008823C4F480E001DF8093050180E0CEDEC5
:10037000109208011092090110920A0110920B01CB
:10038000109206018091C80085FF04C061E0809151
:100390000501D9CE089580911401882319F0813088
:1003A00039F004C081E08093140102C08130A1F4CF
:1003B00080910401833620F48F5F809304010895B7
:1003C00080910701811104C081E08093070102C080
:1003D000109207011092040108958091130188235F
:1003E00019F0813039F004C081E08093130102C01C
:1003F000813059F48091050185B9809106018823E7
:1004000019F08FEF88B9089518B8089580911101F7
:10041000811103C081E080931101089511B88FEF1D
:1004200082B987B918B884B915B880E04DDE81E08B
:100430004BDE6AE070E080E090E031DFA8DE1092F1
:100440001201109214011092130110921101DEDFBB
:1004500037DFA1DFC2DF809110018823E1F3109222
:080460001001F5CFF894FFCF65
:04046800010000008F
:00000001FF
