S01900004353313232415F4C6162325F50617274332E73726563D6
S113000045C0000060C000005EC000005CC000008D
S11300105AC0000058C0000056C0000054C0000080
S113002052C0000050C000004EC000004CC0000090
S11300304AC00000CFC0000046C0000044C0000019
S113004042C0000040C000003EC000003CC00000B0
S11300503AC0000038C0000036C0000034C00000C0
S113006032C0000030C000002EC000002CC00000D0
S11300702AC0000028C0000026C0000024C00000E0
S113008022C0000020C000001EC0000011241FBEBA
S1130090CFEFD0E4DEBFCDBF11E0A0E0B1E0E2E1FC
S11300A0F4E000E00BBF02C007900D92A430B1074A
S11300B0D9F721E0A4E0B1E001C01D92A531B20757
S11300C0E1F77CD1A4C19CCF813081F0E1ECF0E078
S11300D0808188618083E2ECF0E0808186608083A7
S11300E083E38093C4001092C5000895E9ECF0E026
S11300F0808188618083EAECF0E08081866080837F
S113010083E38093CC001092CD000895813029F4CC
S11301108091C800882374F008958091C0008823DA
S11301208CF4A6ECB0E0E0ECF0E08C9180818823C4
S1130130E4F30895AEECB0E0E8ECF0E08C9180815B
S11301408823E4F30895613041F0E0ECF0E090811D
S113015095FFFDCF8093C6000895E8ECF0E0908110
S113016095FFFDCF8093CE000895813041F0E0ECFF
S1130170F0E080818823ECF78091C6000895E8ECD4
S1130180F0E080818823ECF78091CE0008958BE025
S1130190809381008DE790E090938900809388009C
S11301A082E080936F001092850010928400809109
S11301B0000190910101A0910201B091030180938B
S11301C00C0190930D01A0930E01B0930F0180E8F0
S11301D08FBF08951F920F920FB60F9211248F9321
S11301E09F93AF93BF9380910C0190910D01A091C7
S11301F00E01B0910F010197A109B10980930C017F
S113020090930D01A0930E01B0930F01892B8A2BBB
S11302108B2B99F481E080931001809100019091DF
S11302200101A0910201B091030180930C0190930C
S11302300D01A0930E01B0930F01BF91AF919F9157
S11302408F910F900FBE0F901F901895609300012F
S113025070930101809302019093030160930C0158
S113026070930D0180930E0190930F010895809176
S11302701201813041F018F0823069F014C082E03C
S11302808093120122C080910A01811111C082E081
S1130290809312011AC080910A018823B1F081E091
S11302A08093120105C0813019F0823001F50DC030
S11302B08091C80085FF04C061E080910B0143DF99
S11302C080910B018093090108958091C0008823D7
S11302D074F480E04ADF8093090180E017DF109214
S11302E00501109206011092070110920801089569
S11302F080911401882319F0813039F004C081E021
S11303008093140102C08130A1F4809104018336EA
S113031020F48F5F80930401089580910B01811173
S113032004C081E080930B0102C010920B01109273
S11303300401089580911301882319F0813039F064
S113034004C081E08093130102C0813059F480918C
S1130350090185B980910A01882319F08FEF88B9C2
S1130360089518B8089580911101882319F08130F7
S113037039F004C081E08093110102C08130E9F4B6
S11303808091050190910601A0910701B0910801A7
S11303908B3221E09207A105B10560F40196A11DFD
S11303A0B11D8093050190930601A0930701B093BA
S11303B00801089581E080930A01089511B88FEF30
S11303C082B987B918B884B915B880E07DDE81E0B8
S11303D07BDE6AE070E080E090E038DFD8DE2196D2
S11303E0CB3281E0D807DCF3109212011092140191
S11303F01092130110921101B6DF39DF79DF9ADF11
S1130400809110018823E1F310921001F5CFF89444
S1050410FFCF18
S107041201000000E1
S9030000FC
