S02A00004353313232415F4C6162325F4C65616465725F466F6C6C6F7765725F4D616E75616C2E73726563DC
S113000045C0000060C000005EC000005CC000008D
S11300105AC0000058C0000056C0000054C0000080
S113002052C0000050C000004EC000004CC0000090
S11300304AC00000CFC0000046C0000044C0000019
S113004042C0000040C000003EC000003CC00000B0
S11300503AC0000038C0000036C0000034C00000C0
S113006032C0000030C000002EC000002CC00000D0
S11300702AC0000028C0000026C0000024C00000E0
S113008022C0000020C000001EC0000011241FBEBA
S1130090CFEFD0E4DEBFCDBF11E0A0E0B1E0E4EDEE
S11300A0F3E000E00BBF02C007900D92A630B10749
S11300B0D9F721E0A6E0B1E001C01D92A331B20757
S11300C0E1F762D185C19CCF813081F0E1ECF0E0B1
S11300D0808188618083E2ECF0E0808186608083A7
S11300E083E38093C4001092C5000895E9ECF0E026
S11300F0808188618083EAECF0E08081866080837F
S113010083E38093CC001092CD000895813029F4CC
S11301108091C800882374F008958091C0008823DA
S11301208CF4A6ECB0E0E0ECF0E08C9180818823C4
S1130130E4F30895AEECB0E0E8ECF0E08C9180815B
S11301408823E4F30895613041F0E0ECF0E090811D
S113015095FFFDCF8093C6000895E8ECF0E0908110
S113016095FFFDCF8093CE000895813041F0E0ECFF
S1130170F0E080818823ECF78091C6000895E8ECD4
S1130180F0E080818823ECF78091CE0008958BE025
S1130190809381008DE790E090938900809388009C
S11301A082E080936F001092850010928400809109
S11301B0010190910201A0910301B0910401809387
S11301C0090190930A01A0930B01B0930C0180E8FC
S11301D08FBF08951F920F920FB60F9211248F9321
S11301E09F93AF93BF938091090190910A01A091CD
S11301F00B01B0910C010197A109B1098093090188
S113020090930A01A0930B01B0930C01892B8A2BC4
S11302108B2B99F481E080930D01809101019091E1
S11302200201A0910301B09104018093090190930C
S11302300A01A0930B01B0930C01BF91AF919F9160
S11302408F910F900FBE0F901F901895609301012E
S11302507093020180930301909304016093090158
S113026070930A0180930B0190930C01089580917F
S11302700F01813041F018F0823069F014C081E040
S113028080930F0115C080910001811111C082E09B
S113029080930F011AC0809100018823B1F081E09E
S11302A080930F0105C0813019F08230C1F40DC074
S11302B08091C80085FF04C061E08091080143DF9C
S11302C0809108018093070108958091C0008823DC
S11302D034F480E04ADF8093070180E017CF08956B
S11302E080911101882319F0813039F004C081E034
S11302F08093110102C08130A1F4809106018336FC
S113030020F48F5F80930601089580910801811184
S113031004C081E08093080102C010920801109289
S11303200601089580911001882319F0813039F075
S113033004C081E08093100102C0813059F480919F
S1130340070185B980910001882319F08FEF88B9DE
S1130350089518B8089580910E01882319F081300A
S113036039F004C081E080930E0102C0813059F459
S113037080B18093120180FF04C081E0809300016A
S1130380089510920001089511B88FEF82B987B9CA
S113039018B884B915B880E097DE81E095DE6AE08C
S11303A070E080E090E052DFF2DE10920F011092D4
S11303B011011092100110920E01CDDF58DF90DF71
S11303C0B1DF80910D018823E1F310920D01F5CF87
S10703D0F894FFCFCB
S10903D40101000000001D
S9030000FC
